{
  "contractName": "DropDapp",
  "abi": [
    {
      "inputs": [],
      "payable": false,
      "stateMutability": "nonpayable",
      "type": "constructor"
    },
    {
      "constant": true,
      "inputs": [
        {
          "internalType": "string",
          "name": "secret",
          "type": "string"
        }
      ],
      "name": "generateSecret",
      "outputs": [
        {
          "internalType": "bytes32",
          "name": "generatedSecret",
          "type": "bytes32"
        }
      ],
      "payable": false,
      "stateMutability": "pure",
      "type": "function"
    },
    {
      "constant": false,
      "inputs": [],
      "name": "registerSeller",
      "outputs": [],
      "payable": false,
      "stateMutability": "nonpayable",
      "type": "function"
    },
    {
      "constant": false,
      "inputs": [
        {
          "internalType": "bytes32",
          "name": "secret",
          "type": "bytes32"
        }
      ],
      "name": "registerCustomer",
      "outputs": [],
      "payable": false,
      "stateMutability": "nonpayable",
      "type": "function"
    },
    {
      "constant": false,
      "inputs": [
        {
          "internalType": "string",
          "name": "productId",
          "type": "string"
        },
        {
          "internalType": "uint256",
          "name": "price",
          "type": "uint256"
        },
        {
          "internalType": "uint256",
          "name": "minCount",
          "type": "uint256"
        },
        {
          "internalType": "uint256",
          "name": "maxCount",
          "type": "uint256"
        }
      ],
      "name": "advertiseProduct",
      "outputs": [],
      "payable": false,
      "stateMutability": "nonpayable",
      "type": "function"
    },
    {
      "constant": false,
      "inputs": [
        {
          "internalType": "string",
          "name": "productId",
          "type": "string"
        }
      ],
      "name": "endOffer",
      "outputs": [],
      "payable": false,
      "stateMutability": "nonpayable",
      "type": "function"
    },
    {
      "constant": false,
      "inputs": [
        {
          "internalType": "string",
          "name": "productId",
          "type": "string"
        }
      ],
      "name": "placeOrder",
      "outputs": [
        {
          "internalType": "bytes32",
          "name": "",
          "type": "bytes32"
        }
      ],
      "payable": true,
      "stateMutability": "payable",
      "type": "function"
    },
    {
      "constant": false,
      "inputs": [
        {
          "internalType": "bytes32",
          "name": "orderHash",
          "type": "bytes32"
        }
      ],
      "name": "withdrawOrder",
      "outputs": [],
      "payable": false,
      "stateMutability": "nonpayable",
      "type": "function"
    },
    {
      "constant": false,
      "inputs": [
        {
          "internalType": "string",
          "name": "productId",
          "type": "string"
        }
      ],
      "name": "processOrder",
      "outputs": [],
      "payable": true,
      "stateMutability": "payable",
      "type": "function"
    },
    {
      "constant": false,
      "inputs": [
        {
          "internalType": "bytes32",
          "name": "orderHash",
          "type": "bytes32"
        }
      ],
      "name": "orderUpdate",
      "outputs": [
        {
          "internalType": "enum DropDapp.orderStatus",
          "name": "",
          "type": "uint8"
        }
      ],
      "payable": false,
      "stateMutability": "nonpayable",
      "type": "function"
    },
    {
      "constant": true,
      "inputs": [
        {
          "internalType": "string",
          "name": "productId",
          "type": "string"
        }
      ],
      "name": "getOrderId",
      "outputs": [
        {
          "internalType": "bytes32",
          "name": "",
          "type": "bytes32"
        }
      ],
      "payable": false,
      "stateMutability": "view",
      "type": "function"
    },
    {
      "constant": true,
      "inputs": [
        {
          "internalType": "bytes32",
          "name": "orderHash",
          "type": "bytes32"
        }
      ],
      "name": "getOrderStatus",
      "outputs": [
        {
          "internalType": "enum DropDapp.orderStatus",
          "name": "",
          "type": "uint8"
        }
      ],
      "payable": false,
      "stateMutability": "view",
      "type": "function"
    },
    {
      "constant": true,
      "inputs": [
        {
          "internalType": "string",
          "name": "productId",
          "type": "string"
        }
      ],
      "name": "getProductStatus",
      "outputs": [
        {
          "internalType": "enum DropDapp.productStatus",
          "name": "",
          "type": "uint8"
        }
      ],
      "payable": false,
      "stateMutability": "view",
      "type": "function"
    }
  ],
  "bytecode": "0x608060405234801561001057600080fd5b50336000806101000a81548173ffffffffffffffffffffffffffffffffffffffff021916908373ffffffffffffffffffffffffffffffffffffffff160217905550612a95806100606000396000f3fe6080604052600436106100a75760003560e01c806352c9224c1161006457806352c9224c1461051d57806352efaec3146105345780638486dfcf146106105780639f62af071461064b578063d281663d14610735578063f6bb997b14610792576100a7565b8063263b4db6146100ac5780632ba5c3a51461016757806335b8465514610243578063453217f81461032957806346423aa7146103f8578063495d2ea314610455575b600080fd5b610165600480360360208110156100c257600080fd5b81019080803590602001906401000000008111156100df57600080fd5b8201836020820111156100f157600080fd5b8035906020019184600183028401116401000000008311171561011357600080fd5b91908080601f016020809104026020016040519081016040528093929190818152602001838380828437600081840152601f19601f8201169050808301925050505050505091929192905050506107cd565b005b34801561017357600080fd5b5061022d6004803603602081101561018a57600080fd5b81019080803590602001906401000000008111156101a757600080fd5b8201836020820111156101b957600080fd5b803590602001918460018302840111640100000000831117156101db57600080fd5b91908080601f016020809104026020016040519081016040528093929190818152602001838380828437600081840152601f19601f820116905080830192505050505050509192919290505050610ae9565b6040518082815260200191505060405180910390f35b34801561024f57600080fd5b506103276004803603608081101561026657600080fd5b810190808035906020019064010000000081111561028357600080fd5b82018360208201111561029557600080fd5b803590602001918460018302840111640100000000831117156102b757600080fd5b91908080601f016020809104026020016040519081016040528093929190818152602001838380828437600081840152601f19601f820116905080830192505050505050509192919290803590602001909291908035906020019092919080359060200190929190505050610c82565b005b6103e26004803603602081101561033f57600080fd5b810190808035906020019064010000000081111561035c57600080fd5b82018360208201111561036e57600080fd5b8035906020019184600183028401116401000000008311171561039057600080fd5b91908080601f016020809104026020016040519081016040528093929190818152602001838380828437600081840152601f19601f820116905080830192505050505050509192919290505050610f6a565b6040518082815260200191505060405180910390f35b34801561040457600080fd5b506104316004803603602081101561041b57600080fd5b810190808035906020019092919050505061145f565b6040518082600381111561044157fe5b60ff16815260200191505060405180910390f35b34801561046157600080fd5b5061051b6004803603602081101561047857600080fd5b810190808035906020019064010000000081111561049557600080fd5b8201836020820111156104a757600080fd5b803590602001918460018302840111640100000000831117156104c957600080fd5b91908080601f016020809104026020016040519081016040528093929190818152602001838380828437600081840152601f19601f820116905080830192505050505050509192919290505050611638565b005b34801561052957600080fd5b506105326119f5565b005b34801561054057600080fd5b506105fa6004803603602081101561055757600080fd5b810190808035906020019064010000000081111561057457600080fd5b82018360208201111561058657600080fd5b803590602001918460018302840111640100000000831117156105a857600080fd5b91908080601f016020809104026020016040519081016040528093929190818152602001838380828437600081840152601f19601f820116905080830192505050505050509192919290505050611af7565b6040518082815260200191505060405180910390f35b34801561061c57600080fd5b506106496004803603602081101561063357600080fd5b8101908080359060200190929190505050611b75565b005b34801561065757600080fd5b506107116004803603602081101561066e57600080fd5b810190808035906020019064010000000081111561068b57600080fd5b82018360208201111561069d57600080fd5b803590602001918460018302840111640100000000831117156106bf57600080fd5b91908080601f016020809104026020016040519081016040528093929190818152602001838380828437600081840152601f19601f820116905080830192505050505050509192919290505050611c8c565b6040518082600281111561072157fe5b60ff16815260200191505060405180910390f35b34801561074157600080fd5b5061076e6004803603602081101561075857600080fd5b8101908080359060200190929190505050611d0f565b6040518082600381111561077e57fe5b60ff16815260200191505060405180910390f35b34801561079e57600080fd5b506107cb600480360360208110156107b557600080fd5b8101908080359060200190929190505050612249565b005b600160003373ffffffffffffffffffffffffffffffffffffffff1673ffffffffffffffffffffffffffffffffffffffff16815260200190815260200160002060000160149054906101000a900460ff1661082657600080fd5b6001600281111561083357fe5b6003826040518082805190602001908083835b602083106108695780518252602082019150602081019050602083039250610846565b6001836020036101000a038019825116818451168082178552505050505050905001915050908152602001604051809103902060050160149054906101000a900460ff1660028111156108b857fe5b1415610ae6576108c66128a3565b6003826040518082805190602001908083835b602083106108fc57805182526020820191506020810190506020830392506108d9565b6001836020036101000a03801982511681845116808217855250505050505090500191505090815260200160405180910390206040518060e0016040529081600082018054600181600116156101000203166002900480601f0160208091040260200160405190810160405280929190818152602001828054600181600116156101000203166002900480156109d35780601f106109a8576101008083540402835291602001916109d3565b820191906000526020600020905b8154815290600101906020018083116109b657829003601f168201915b50505050508152602001600182015481526020016002820154815260200160038201548152602001600482015481526020016005820160009054906101000a900473ffffffffffffffffffffffffffffffffffffffff1673ffffffffffffffffffffffffffffffffffffffff1673ffffffffffffffffffffffffffffffffffffffff1681526020016005820160149054906101000a900460ff166002811115610a7857fe5b6002811115610a8357fe5b8152505090506000816080015182602001510290508160a0015173ffffffffffffffffffffffffffffffffffffffff166108fc829081150290604051600060405180830381858888f19350505050158015610ae2573d6000803e3d6000fd5b5050505b50565b6000600260003373ffffffffffffffffffffffffffffffffffffffff1673ffffffffffffffffffffffffffffffffffffffff16815260200190815260200160002060000160149054906101000a900460ff16610b4457600080fd5b60008233600260003373ffffffffffffffffffffffffffffffffffffffff1673ffffffffffffffffffffffffffffffffffffffff168152602001908152602001600020600101546040516020018084805190602001908083835b60208310610bc15780518252602082019150602081019050602083039250610b9e565b6001836020036101000a0380198251168184511680821785525050505050509050018373ffffffffffffffffffffffffffffffffffffffff1673ffffffffffffffffffffffffffffffffffffffff1660601b815260140182815260200193505050506040516020818303038152906040528051906020012090506000801b60046000838152602001908152602001600020600101541115610c7b576004600082815260200190815260200160002060010154915050610c7d565b505b919050565b600160003373ffffffffffffffffffffffffffffffffffffffff1673ffffffffffffffffffffffffffffffffffffffff16815260200190815260200160002060000160149054906101000a900460ff16610cdb57600080fd5b83600073ffffffffffffffffffffffffffffffffffffffff166003826040518082805190602001908083835b60208310610d2a5780518252602082019150602081019050602083039250610d07565b6001836020036101000a038019825116818451168082178552505050505050905001915050908152602001604051809103902060050160009054906101000a900473ffffffffffffffffffffffffffffffffffffffff1673ffffffffffffffffffffffffffffffffffffffff1614610da157600080fd5b610da96128a3565b858160000181905250670de0b6b3a764000085028160200181815250508381604001818152505082816060018181525050338160a0019073ffffffffffffffffffffffffffffffffffffffff16908173ffffffffffffffffffffffffffffffffffffffff1681525050600081608001818152505060008160c001906002811115610e2f57fe5b90816002811115610e3c57fe5b81525050806003876040518082805190602001908083835b60208310610e775780518252602082019150602081019050602083039250610e54565b6001836020036101000a03801982511681845116808217855250505050505090500191505090815260200160405180910390206000820151816000019080519060200190610ec6929190612901565b506020820151816001015560408201518160020155606082015181600301556080820151816004015560a08201518160050160006101000a81548173ffffffffffffffffffffffffffffffffffffffff021916908373ffffffffffffffffffffffffffffffffffffffff16021790555060c08201518160050160146101000a81548160ff02191690836002811115610f5a57fe5b0217905550905050505050505050565b6000600260003373ffffffffffffffffffffffffffffffffffffffff1673ffffffffffffffffffffffffffffffffffffffff16815260200190815260200160002060000160149054906101000a900460ff16610fc557600080fd5b8160006002811115610fd357fe5b6003826040518082805190602001908083835b602083106110095780518252602082019150602081019050602083039250610fe6565b6001836020036101000a038019825116818451168082178552505050505050905001915050908152602001604051809103902060050160149054906101000a900460ff16600281111561105857fe5b1461106257600080fd5b6003836040518082805190602001908083835b602083106110985780518252602082019150602081019050602083039250611075565b6001836020036101000a03801982511681845116808217855250505050505090500191505090815260200160405180910390206003015460016003856040518082805190602001908083835b6020831061110757805182526020820191506020810190506020830392506110e4565b6001836020036101000a03801982511681845116808217855250505050505090500191505090815260200160405180910390206004015401111561114a57600080fd5b346003846040518082805190602001908083835b60208310611181578051825260208201915060208101905060208303925061115e565b6001836020036101000a03801982511681845116808217855250505050505090500191505090815260200160405180910390206001015411156111c357600080fd5b6111cb612981565b8381600001819052508333600260003373ffffffffffffffffffffffffffffffffffffffff1673ffffffffffffffffffffffffffffffffffffffff168152602001908152602001600020600101546040516020018084805190602001908083835b6020831061124f578051825260208201915060208101905060208303925061122c565b6001836020036101000a0380198251168184511680821785525050505050509050018373ffffffffffffffffffffffffffffffffffffffff1673ffffffffffffffffffffffffffffffffffffffff1660601b815260140182815260200193505050506040516020818303038152906040528051906020012081602001818152505033816040019073ffffffffffffffffffffffffffffffffffffffff16908173ffffffffffffffffffffffffffffffffffffffff168152505060008160600190600381111561131a57fe5b9081600381111561132757fe5b81525050806004600083602001518152602001908152602001600020600082015181600001908051906020019061135f929190612901565b506020820151816001015560408201518160020160006101000a81548173ffffffffffffffffffffffffffffffffffffffff021916908373ffffffffffffffffffffffffffffffffffffffff16021790555060608201518160020160146101000a81548160ff021916908360038111156113d557fe5b021790555090505060016003856040518082805190602001908083835b6020831061141557805182526020820191506020810190506020830392506113f2565b6001836020036101000a0380198251168184511680821785525050505050509050019150509081526020016040518091039020600401600082825401925050819055505050919050565b6000600260003373ffffffffffffffffffffffffffffffffffffffff1673ffffffffffffffffffffffffffffffffffffffff16815260200190815260200160002060000160149054906101000a900460ff166114ba57600080fd5b816004600082815260200190815260200160002060000133600260006004600086815260200190815260200160002060020160009054906101000a900473ffffffffffffffffffffffffffffffffffffffff1673ffffffffffffffffffffffffffffffffffffffff1673ffffffffffffffffffffffffffffffffffffffff1681526020019081526020016000206001015460405160200180848054600181600116156101000203166002900480156115a95780601f106115875761010080835404028352918201916115a9565b820191906000526020600020905b815481529060010190602001808311611595575b50508373ffffffffffffffffffffffffffffffffffffffff1673ffffffffffffffffffffffffffffffffffffffff1660601b8152601401828152602001935050505060405160208183030381529060405280519060200120811461160c57600080fd5b6004600084815260200190815260200160002060020160149054906101000a900460ff16915050919050565b600160003373ffffffffffffffffffffffffffffffffffffffff1673ffffffffffffffffffffffffffffffffffffffff16815260200190815260200160002060000160149054906101000a900460ff1661169157600080fd5b3373ffffffffffffffffffffffffffffffffffffffff166003826040518082805190602001908083835b602083106116de57805182526020820191506020810190506020830392506116bb565b6001836020036101000a038019825116818451168082178552505050505050905001915050908152602001604051809103902060050160009054906101000a900473ffffffffffffffffffffffffffffffffffffffff1673ffffffffffffffffffffffffffffffffffffffff161461175557600080fd5b6000600281111561176257fe5b6003826040518082805190602001908083835b602083106117985780518252602082019150602081019050602083039250611775565b6001836020036101000a038019825116818451168082178552505050505050905001915050908152602001604051809103902060050160149054906101000a900460ff1660028111156117e757fe5b146117f157600080fd5b6003816040518082805190602001908083835b602083106118275780518252602082019150602081019050602083039250611804565b6001836020036101000a0380198251168184511680821785525050505050509050019150509081526020016040518091039020600201546003826040518082805190602001908083835b602083106118945780518252602082019150602081019050602083039250611871565b6001836020036101000a038019825116818451168082178552505050505050905001915050908152602001604051809103902060040154106119635760016003826040518082805190602001908083835b6020831061190857805182526020820191506020810190506020830392506118e5565b6001836020036101000a038019825116818451168082178552505050505050905001915050908152602001604051809103902060050160146101000a81548160ff0219169083600281111561195957fe5b02179055506119f2565b60026003826040518082805190602001908083835b6020831061199b5780518252602082019150602081019050602083039250611978565b6001836020036101000a038019825116818451168082178552505050505050905001915050908152602001604051809103902060050160146101000a81548160ff021916908360028111156119ec57fe5b02179055505b50565b6119fd6129cd565b33816000019073ffffffffffffffffffffffffffffffffffffffff16908173ffffffffffffffffffffffffffffffffffffffff168152505060018160200190151590811515815250508060016000836000015173ffffffffffffffffffffffffffffffffffffffff1673ffffffffffffffffffffffffffffffffffffffff16815260200190815260200160002060008201518160000160006101000a81548173ffffffffffffffffffffffffffffffffffffffff021916908373ffffffffffffffffffffffffffffffffffffffff16021790555060208201518160000160146101000a81548160ff02191690831515021790555090505050565b6000816040516020018082805190602001908083835b60208310611b305780518252602082019150602081019050602083039250611b0d565b6001836020036101000a038019825116818451168082178552505050505050905001915050604051602081830303815290604052805190602001209050809050919050565b611b7d6129ff565b33816000019073ffffffffffffffffffffffffffffffffffffffff16908173ffffffffffffffffffffffffffffffffffffffff16815250506001816020019015159081151581525050818160400181815250508060026000836000015173ffffffffffffffffffffffffffffffffffffffff1673ffffffffffffffffffffffffffffffffffffffff16815260200190815260200160002060008201518160000160006101000a81548173ffffffffffffffffffffffffffffffffffffffff021916908373ffffffffffffffffffffffffffffffffffffffff16021790555060208201518160000160146101000a81548160ff021916908315150217905550604082015181600101559050505050565b60006003826040518082805190602001908083835b60208310611cc45780518252602082019150602081019050602083039250611ca1565b6001836020036101000a038019825116818451168082178552505050505050905001915050908152602001604051809103902060050160149054906101000a900460ff169050919050565b6000600260003373ffffffffffffffffffffffffffffffffffffffff1673ffffffffffffffffffffffffffffffffffffffff16815260200190815260200160002060000160149054906101000a900460ff16611d6a57600080fd5b816004600082815260200190815260200160002060000133600260006004600086815260200190815260200160002060020160009054906101000a900473ffffffffffffffffffffffffffffffffffffffff1673ffffffffffffffffffffffffffffffffffffffff1673ffffffffffffffffffffffffffffffffffffffff168152602001908152602001600020600101546040516020018084805460018160011615610100020316600290048015611e595780601f10611e37576101008083540402835291820191611e59565b820191906000526020600020905b815481529060010190602001808311611e45575b50508373ffffffffffffffffffffffffffffffffffffffff1673ffffffffffffffffffffffffffffffffffffffff1660601b81526014018281526020019350505050604051602081830303815290604052805190602001208114611ebc57600080fd5b611ec4612981565b60046000858152602001908152602001600020604051806080016040529081600082018054600181600116156101000203166002900480601f016020809104026020016040519081016040528092919081815260200182805460018160011615610100020316600290048015611f7b5780601f10611f5057610100808354040283529160200191611f7b565b820191906000526020600020905b815481529060010190602001808311611f5e57829003601f168201915b50505050508152602001600182015481526020016002820160009054906101000a900473ffffffffffffffffffffffffffffffffffffffff1673ffffffffffffffffffffffffffffffffffffffff1673ffffffffffffffffffffffffffffffffffffffff1681526020016002820160149054906101000a900460ff16600381111561200257fe5b600381111561200d57fe5b81525050905060028081111561201f57fe5b600382600001516040518082805190602001908083835b602083106120595780518252602082019150602081019050602083039250612036565b6001836020036101000a038019825116818451168082178552505050505050905001915050908152602001604051809103902060050160149054906101000a900460ff1660028111156120a857fe5b1480156120cf5750600060038111156120bd57fe5b816060015160038111156120cd57fe5b145b15612120576120e3816000015185336126ba565b60026004600086815260200190815260200160002060020160146101000a81548160ff0219169083600381111561211657fe5b021790555061221c565b6001600281111561212d57fe5b600382600001516040518082805190602001908083835b602083106121675780518252602082019150602081019050602083039250612144565b6001836020036101000a038019825116818451168082178552505050505050905001915050908152602001604051809103902060050160149054906101000a900460ff1660028111156121b657fe5b1480156121dd5750600060038111156121cb57fe5b816060015160038111156121db57fe5b145b1561221b5760036004600086815260200190815260200160002060020160146101000a81548160ff0219169083600381111561221557fe5b02179055505b5b6004600085815260200190815260200160002060020160149054906101000a900460ff1692505050919050565b600460008281526020019081526020016000206000018054600181600116156101000203166002900480601f0160208091040260200160405190810160405280929190818152602001828054600181600116156101000203166002900480156122f35780601f106122c8576101008083540402835291602001916122f3565b820191906000526020600020905b8154815290600101906020018083116122d657829003601f168201915b50505050506000600281111561230557fe5b6003826040518082805190602001908083835b6020831061233b5780518252602082019150602081019050602083039250612318565b6001836020036101000a038019825116818451168082178552505050505050905001915050908152602001604051809103902060050160149054906101000a900460ff16600281111561238a57fe5b1461239457600080fd5b816004600082815260200190815260200160002060000133600260006004600086815260200190815260200160002060020160009054906101000a900473ffffffffffffffffffffffffffffffffffffffff1673ffffffffffffffffffffffffffffffffffffffff1673ffffffffffffffffffffffffffffffffffffffff1681526020019081526020016000206001015460405160200180848054600181600116156101000203166002900480156124835780601f10612461576101008083540402835291820191612483565b820191906000526020600020905b81548152906001019060200180831161246f575b50508373ffffffffffffffffffffffffffffffffffffffff1673ffffffffffffffffffffffffffffffffffffffff1660601b815260140182815260200193505050506040516020818303038152906040528051906020012081146124e657600080fd5b600060038111156124f357fe5b6004600085815260200190815260200160002060020160149054906101000a900460ff16600381111561252257fe5b1461252c57600080fd5b6125e5600460008581526020019081526020016000206000018054600181600116156101000203166002900480601f0160208091040260200160405190810160405280929190818152602001828054600181600116156101000203166002900480156125d95780601f106125ae576101008083540402835291602001916125d9565b820191906000526020600020905b8154815290600101906020018083116125bc57829003601f168201915b505050505084336126ba565b6001600360046000868152602001908152602001600020600001604051808280546001816001161561010002031660029004801561265a5780601f1061263857610100808354040283529182019161265a565b820191906000526020600020905b815481529060010190602001808311612646575b505091505090815260200160405180910390206004016000828254039250508190555060016004600085815260200190815260200160002060020160146101000a81548160ff021916908360038111156126b057fe5b0217905550505050565b8281600260006004600087815260200190815260200160002060020160009054906101000a900473ffffffffffffffffffffffffffffffffffffffff1673ffffffffffffffffffffffffffffffffffffffff1673ffffffffffffffffffffffffffffffffffffffff168152602001908152602001600020600101546040516020018084805190602001908083835b6020831061276b5780518252602082019150602081019050602083039250612748565b6001836020036101000a0380198251168184511680821785525050505050509050018373ffffffffffffffffffffffffffffffffffffffff1673ffffffffffffffffffffffffffffffffffffffff1660601b815260140182815260200193505050506040516020818303038152906040528051906020012082141561289e578073ffffffffffffffffffffffffffffffffffffffff166108fc6003856040518082805190602001908083835b6020831061283a5780518252602082019150602081019050602083039250612817565b6001836020036101000a0380198251168184511680821785525050505050509050019150509081526020016040518091039020600101549081150290604051600060405180830381858888f1935050505015801561289c573d6000803e3d6000fd5b505b505050565b6040518060e001604052806060815260200160008152602001600081526020016000815260200160008152602001600073ffffffffffffffffffffffffffffffffffffffff168152602001600060028111156128fb57fe5b81525090565b828054600181600116156101000203166002900490600052602060002090601f016020900481019282601f1061294257805160ff1916838001178555612970565b82800160010185558215612970579182015b8281111561296f578251825591602001919060010190612954565b5b50905061297d9190612a3b565b5090565b60405180608001604052806060815260200160008019168152602001600073ffffffffffffffffffffffffffffffffffffffff168152602001600060038111156129c757fe5b81525090565b6040518060400160405280600073ffffffffffffffffffffffffffffffffffffffff1681526020016000151581525090565b6040518060600160405280600073ffffffffffffffffffffffffffffffffffffffff168152602001600015158152602001600080191681525090565b612a5d91905b80821115612a59576000816000905550600101612a41565b5090565b9056fea265627a7a723158207ca7307272c5a2a7a4d1723c9fd2258631c0ca924bb0bd8bb6bdd9a3caf24a0864736f6c63430005100032",
  "source": "pragma solidity >=0.4.22 <=0.8.0;\r\n\r\ncontract DropDapp {\r\n    \r\n    //address used to deploy contract\r\n    address admin;\r\n    \r\n    \r\n    //Seller Struct\r\n    struct Seller {\r\n        address sellerId;\r\n        bool isRegistered;\r\n    }\r\n\r\n    //Customer struct\r\n    struct Customer {\r\n        address customerId;\r\n        bool isRegistered;\r\n        bytes32 secret;\r\n    }\r\n    \r\n    enum productStatus{Open, Closed, Terminated} \r\n    \r\n    enum orderStatus{Placed, Cancelled, Refunded, Shipping}\r\n    \r\n    \r\n    //Product struct\r\n    struct Product {\r\n        string productId;\r\n        uint256 price;\r\n        uint minCount;\r\n        uint maxCount;\r\n        uint orderCount;\r\n        address payable sellerId; \r\n        productStatus status;\r\n    }\r\n    \r\n    \r\n    //Order Struct\r\n    struct Order {\r\n        string productId;\r\n        bytes32 orderId;\r\n        address customerId;\r\n        orderStatus status;\r\n    }\r\n    \r\n    //mapping to keep track of sellers\r\n    mapping(address => Seller) sellers;\r\n    \r\n    //mapping to keep track of customers\r\n    mapping(address => Customer) customers;\r\n    \r\n    //mapping to keep track of product details using productId\r\n    mapping(string => Product) products;\r\n    \r\n    //mapping to keep track of placed orders using orderHash\r\n    mapping(bytes32 => Order) placedOrders;\r\n    \r\n    \r\n    //Check if the user is a registered seller\r\n    modifier sellerOnly {\r\n        require(sellers[msg.sender].isRegistered);\r\n        _;\r\n    }\r\n    \r\n    //Check if the user is a registered customer\r\n    modifier customerOnly {\r\n        require(customers[msg.sender].isRegistered);\r\n        _;\r\n    }\r\n    \r\n    modifier isUniqueProduct(string memory productId) {\r\n        require(products[productId].sellerId == address(0));\r\n        _;\r\n    }\r\n    \r\n    modifier isOfferValid(string memory productId) {\r\n        require(products[productId].status == productStatus.Open);\r\n        _;\r\n    }\r\n    \r\n    modifier isValidOrder(bytes32 orderHash) {\r\n        require (orderHash == keccak256(abi.encodePacked(placedOrders[orderHash].productId, msg.sender, customers[placedOrders[orderHash].customerId].secret)));\r\n        _;\r\n    }\r\n\r\n\r\n    constructor() public {\r\n        admin = msg.sender;\r\n    }\r\n    \r\n\r\n    function generateSecret(string memory secret) public pure returns (bytes32 generatedSecret) {\r\n        generatedSecret = keccak256(abi.encodePacked(secret));\r\n        return generatedSecret;\r\n    }\r\n    \r\n    function registerSeller() public {\r\n        Seller memory seller;\r\n        seller.sellerId = msg.sender;\r\n        seller.isRegistered = true;\r\n        sellers[seller.sellerId] = seller; \r\n    }\r\n    \r\n    function registerCustomer(bytes32 secret) public {\r\n        Customer memory customer;\r\n        customer.customerId = msg.sender;\r\n        customer.isRegistered = true;\r\n        customer.secret = secret;\r\n        customers[customer.customerId] = customer;\r\n        \r\n    } \r\n    \r\n    function advertiseProduct(string memory productId, uint price, uint minCount, uint maxCount) public sellerOnly isUniqueProduct(productId) {\r\n        Product memory product;\r\n        product.productId = productId;\r\n        product.price = price*(1 ether);\r\n        product.minCount = minCount;\r\n        product.maxCount = maxCount;\r\n        product.sellerId = msg.sender;\r\n        product.orderCount = 0;\r\n        product.status = productStatus.Open;\r\n        products[productId] = product;\r\n        \r\n    }\r\n    \r\n    function endOffer(string memory productId) public sellerOnly {\r\n        require(products[productId].sellerId == msg.sender);\r\n        require(products[productId].status == productStatus.Open);\r\n        \r\n        if(products[productId].orderCount >= products[productId].minCount) {\r\n            products[productId].status = productStatus.Closed;\r\n        }\r\n        else\r\n        {\r\n            products[productId].status = productStatus.Terminated;\r\n        }\r\n    }\r\n    \r\n    \r\n    function placeOrder(string memory productId) public payable customerOnly isOfferValid(productId) returns(bytes32) {\r\n\r\n\r\n        \r\n        require(products[productId].orderCount + 1 <= products[productId].maxCount);\r\n        require((products[productId].price) <= msg.value);\r\n        // products[productId].sellerId.transfer(msg.value);\r\n\r\n        Order memory order;\r\n        order.productId = productId;\r\n        order.orderId = keccak256(abi.encodePacked(productId, msg.sender, customers[msg.sender].secret));\r\n        order.customerId = msg.sender;\r\n        order.status = orderStatus.Placed;\r\n        placedOrders[order.orderId] = order;\r\n        products[productId].orderCount += 1;\r\n    }\r\n    \r\n    \r\n    function withdrawOrder(bytes32 orderHash) isOfferValid(placedOrders[orderHash].productId) isValidOrder(orderHash) public {\r\n        \r\n        // require(placedOrders[orderHash].customerId == msg.sender);\r\n        require(placedOrders[orderHash].status == orderStatus.Placed);\r\n        refundCustomer(placedOrders[orderHash].productId, orderHash, msg.sender);\r\n        products[placedOrders[orderHash].productId].orderCount -= 1;\r\n        placedOrders[orderHash].status = orderStatus.Cancelled;\r\n    }\r\n    \r\n    function refundCustomer(string memory productId, bytes32 orderHash, address payable customer) internal {\r\n        if (orderHash == keccak256(abi.encodePacked(productId, customer, customers[placedOrders[orderHash].customerId].secret))) \r\n            customer.transfer(products[productId].price);\r\n    }\r\n    \r\n    function processOrder(string memory productId) payable public sellerOnly {\r\n        if(products[productId].status == productStatus.Closed) {\r\n            Product memory product = products[productId];\r\n            uint amount = product.price * product.orderCount;\r\n            product.sellerId.transfer(amount);\r\n        }\r\n    }\r\n    \r\n    function orderUpdate(bytes32 orderHash) public customerOnly isValidOrder(orderHash) returns (orderStatus) {\r\n        Order memory order = placedOrders[orderHash];\r\n        if (products[order.productId].status == productStatus.Terminated && order.status == orderStatus.Placed) {\r\n            refundCustomer(order.productId, orderHash, msg.sender);\r\n            placedOrders[orderHash].status = orderStatus.Refunded;\r\n        }\r\n        else if (products[order.productId].status == productStatus.Closed && order.status == orderStatus.Placed) {\r\n            placedOrders[orderHash].status = orderStatus.Shipping;\r\n        }\r\n        return placedOrders[orderHash].status;\r\n    }\r\n    \r\n    \r\n    function getOrderId(string memory productId) public view customerOnly returns(bytes32) {\r\n        bytes32 orderId = keccak256(abi.encodePacked(productId, msg.sender, customers[msg.sender].secret));\r\n        if (placedOrders[orderId].orderId > 0) {\r\n            return placedOrders[orderId].orderId;\r\n        }\r\n        \r\n    } \r\n    \r\n    function getOrderStatus(bytes32 orderHash) public view customerOnly isValidOrder(orderHash) returns (orderStatus) {\r\n        return placedOrders[orderHash].status;\r\n    }\r\n    \r\n    function getProductStatus(string memory productId) public view returns (productStatus) {\r\n        return products[productId].status;\r\n    }\r\n    \r\n}\r\n\r\n\r\n",
  "sourcePath": "C:/Users/sachi/Desktop/Coursework/Blockchain/Term Project/DropDapp/DropDapp-contract/contracts/DropDapp.sol",
  "compiler": {
    "name": "solc",
    "version": "0.5.16+commit.9c3226ce.Emscripten.clang"
  },
  "schemaVersion": "3.2.5",
  "updatedAt": "2020-11-01T03:23:38.990Z",
  "networkType": "ethereum",
  "devdoc": {
    "methods": {}
  },
  "userdoc": {
    "methods": {}
  }
}